:1000000045C0000053C0000051C000004FC00000B8
:100010004DC000004BC0000049C0000047C00000B8
:1000200045C0000043C0000041C000003FC00000C8
:100030003DC000003BC0000039C0000037C00000D8
:1000400035C0000033C0000031C000002FC00000E8
:100050002DC000002BC0000029C0000027C00000F8
:1000600025C0000023C0000021C000001FC0000008
:100070001DC000001BC0000019C0000017C0000018
:1000800015C0000013C0000011C0000011241FBEE5
:10009000CFEFD0E1DEBFCDBF21E0A0E0B1E001C0F5
:1000A0001D92A330B207E1F761D07EC0A9CF88E4EA
:1000B000809370000895E4E7F0E024EAA1E7B0E05F
:1000C0001082208390819923ECF79C91987F98303F
:1000D000B9F78093730084E880937400E4E7F0E05C
:1000E00080818823ECF708958093730084E88093DF
:1000F0007400E4E7F0E080818823ECF7089584EC55
:1001000080937400E4E7F0E080818823ECF780912D
:100110007300089584E98093740008951F93CF932A
:10012000DF93C82FD62F142FC2DF80EDC4DF80E00D
:10013000DBDF812FD9DF8D2FD7DF8C2FD5DFEADFF3
:10014000DF91CF911F91089580EDB5DF80E0CCDF86
:10015000E1DF81EDB0DFD3DF80930101D0DF809359
:100160000001CDDF80930201D5CF08950FD040E08C
:1001700069E581E0D3DFE8DF8091010111D0809152
:1001800000010ED0809102010BD0F5CF10929000AB
:1001900083E389B988E18AB986E080939500089560
:0C01A0005D9BFECF8CB90895F894FFCF52
:00000001FF
